:100000000C9465000C94700C0C94490C0C949900A1
:100010000C9499000C9499000C9499000C949900FC
:100020000C9499000C9499000C9499000C949900EC
:100030000C9499000C9499000C9499000C949900DC
:100040000C94FF0B0C9499000C94BD0C0C94970C21
:100050000C9499000C9499000C9499000C949900BC
:100060000C94EF0C0C949900000000002400270071
:100070002A00382E322E332E4F4A00352E322E31A2
:100080000000000000250028002B000404040404E4
:100090000404040202020202020303030303030135
:1000A000020408102040800102040810200102040C
:1000B00008102000000008000201000003040700EF
:1000C0000000000000000000070E11241FBECFEF4B
:1000D000D8E0DEBFCDBF14BE0FB6F894A8958091CE
:1000E0006000886180936000109260000FBE11E094
:1000F000A0E0B1E0EEEEFFE202C005900D92A43B5D
:10010000B107D9F723E0A4EBB1E001C01D92A43BF5
:10011000B207E1F710E0C5E6D0E004C02197FE0188
:100120000E940C15C436D107C9F70E94920E0C9498
:10013000F5170C9400002FB7F894009761F440E491
:100140005FE150938900409388009093540380931B
:1001500053032FBF08951092890010928800F5CFA5
:10016000EAEBF0E02491E6EAF0E09491E2E9F0E0D5
:10017000E491EE23C9F0222339F0233001F1A8F4F1
:10018000213019F1223029F1F0E0EE0FFF1FEF5777
:10019000FF4FA591B4912FB7F894EC91811126C02F
:1001A00090959E239C932FBF08952730A9F0283067
:1001B000C9F0243049F7209180002F7D03C02091A1
:1001C00080002F7720938000DFCF24B52F7724BDC8
:1001D000DBCF24B52F7DFBCF2091B0002F7720936C
:1001E000B000D2CF2091B0002F7DF9CF9E2BDACF77
:1001F00008959C01265031092E32310598F445E8C6
:10020000489F9001499F300D11243093890020931D
:10021000880081E090E0909354038093530390E032
:1002200080E008959C01245331092D31310578F483
:10023000092E000CAA0BBB0B80569F4FAF4FBF4F30
:100240009C0185E0220F331F8A95E1F7DECF81E024
:1002500090E008953FB7F89480914C0290914D0240
:10026000A0914E02B0914F0226B5A89B05C02F3F2A
:1002700019F00196A11DB11D3FBFBA2FA92F982FCC
:100280008827BC01CD01620F711D811D911D42E0C7
:10029000660F771F881F991F4A95D1F708958F928F
:1002A0009F92AF92BF92CF92DF92EF92FF926B013B
:1002B0007C010E942A014B015C01C114D104E104BC
:1002C000F104B9F00E942A01681979098A099B0989
:1002D000683E73408105910580F321E0C21AD10880
:1002E000E108F10888EE880E83E0981EA11CB11C7D
:1002F000E4CFFF90EF90DF90CF90BF90AF909F90B2
:100300008F900895A89580E00E94B00064E670E0A8
:1003100080E090E00E944F0181E00E94B0006AE01E
:1003200070E080E090E00C944F01A8950E9482015B
:1003300010925A0310925903E0915503F09156031D
:10034000808190915703892321F081E080935803A5
:1003500008951092580308952FB7F89460914802B9
:100360007091490280914A0290914B022FBF0895EB
:10037000CF93DF93C3E5D3E0EC89FD8992818E8929
:10038000809589238283898D9A8D8F7B9A8F898F1F
:100390000E94AC016EA77FA788AB99AB1092950322
:1003A000109296031092970310929803DF91CF91C9
:1003B0000895CF92DF92EF92FF920F931F93CF9306
:1003C000DF93C82FD0916E038091780286FF04C01E
:1003D0008CEF8D0F8B30C0F50E94AC0130916E0315
:1003E00020916F03321302C0CC2379F068517C4F07
:1003F0008F4F9F4F20916C0321FDC2E0D33029F431
:100400002091780220682093780200918A0210914E
:100410008B0220918C0230918D026B017C01C01AFD
:10042000D10AE20AF30A97018601083E134021052A
:10043000310510F4C13041F460938A0270938B024D
:1004400080938C0290938D02DF91CF911F910F9139
:10045000FF90EF90DF90CF9008950895AF92BF92F4
:10046000CF92DF92EF92FF920F931F93CF93DF9380
:100470006C017B018B01040F151FEB015E01AE18AF
:10048000BF08C017D10759F06991D601ED91FC91D1
:100490000190F081E02DC6010995892B79F7C501FE
:1004A000DF91CF911F910F91FF90EF90DF90CF9050
:1004B000BF90AF900895FC01538D448D252F30E0FF
:1004C000842F90E0821B930B541710F0CF96089561
:1004D00001970895FC01918D828D981761F0A28D8E
:1004E000AE0FBF2FB11D5D968C91928D9F5F9F7354
:1004F000928F90E008958FEF9FEF08958EE892E03D
:100500000C946A02FC01918D828D981731F0828DD6
:10051000E80FF11D858D90E008958FEF9FEF08950E
:10052000FC01918D228D892F90E0805C9F4F821B72
:1005300091098F73992708958EE892E00C949002A8
:100540008EE892E00E94900221E0892B09F420E0DD
:10055000822F089580E090E0892B29F00E94A0026C
:1005600081110C9400000895FC01A48DA80FB92FEF
:10057000B11DA35ABF4F2C91848D90E001968F73CB
:100580009927848FA689B7892C93A089B1898C91EA
:10059000837080648C93938D848D981306C0028839
:1005A000F389E02D80818F7D80830895EF92FF9203
:1005B0000F931F93CF93DF93EC0181E0888F9B8D86
:1005C0008C8D98131AC0E889F989808185FF15C040
:1005D0009FB7F894EE89FF896083E889F989808163
:1005E0008370806480839FBF81E090E0DF91CF9132
:1005F0001F910F91FF90EF900895F62E0B8D10E054
:100600000F5F1F4F0F731127E02E8C8D8E110CC0C2
:100610000FB607FCFACFE889F989808185FFF5CF0D
:10062000CE010E94B402F1CFEB8DEC0FFD2FF11D36
:10063000E35AFF4FF0829FB7F8940B8FEA89FB894A
:1006400080818062CFCFCF93DF93EC01888D8823A8
:10065000B9F0AA89BB89E889F9898C9185FD03C025
:10066000808186FD0DC00FB607FCF7CF8C9185FF0A
:10067000F2CF808185FFEDCFCE010E94B402E9CF99
:10068000DF91CF91089585ED8093BC008091BC00EF
:1006900084FDFCCF10921D020895613298F42091E0
:1006A0001D02243089F46093D401282FA4EBB1E01B
:1006B000FC018E2F821B861710F080E00895819137
:1006C0008D93F7CF81E0089582E00895FC01128EAA
:1006D000A281B3811C9214820895CF93DF93EC0121
:1006E00020E030E0A901E991EE2391F0AAE0B0E02A
:1006F0000E94F9142E2FEE0F330B20533109032ED5
:10070000000C440B550B260F371F481F591FEBCF0A
:10071000CA01B901DF91CF910895FC01908199231D
:10072000D9F080ED890F8A3050F08FEB890F863039
:1007300088F08FE9890F8630F0F489EA890F91817A
:100740009923D1F08295807F20ED290F2A3030F453
:10075000820F089589ECF2CF80E0F1CF2FEB290FC3
:10076000263018F49753890F08952FE9290F263062
:1007700010F49755F8CF80E008958EE892E00C943D
:10078000D602FC0180818770806480937C00809118
:100790007A00806480937A0080917A0086FDFCCF95
:1007A000809178009091790008952F923F924F9216
:1007B0005F926F927F928F929F92AF92BF92CF92F1
:1007C000DF92EF92FF920F931F93CF93DF9300D0AE
:1007D00000D000D0CDB7DEB7A8950E94AC016983E8
:1007E0007A838B839C831E821D8201E0412C512CD5
:1007F000320110E0C12CD12C76010E94AC014B01DA
:100800005C01DC01CB0129813A814B815C81821B37
:10081000930BA40BB50B8397A105B10508F0A3C0FA
:1008200085E693E00E94C103FC0101111CC091E028
:1008300031E0231632E0330608F490E081E0E13045
:1008400042E0F40708F480E0981769F0D501C4018C
:1008500084199509A609B7090697A105B10518F0ED
:100860001F5F24013501113020F0133028F01330C0
:10087000B9F000E01F01C1CFBF0190E080E07250ED
:10088000810991099B01AC010E94B814C60ED71EC4
:10089000E81EF91E8D819E8101969E838D83E9CF8E
:1008A0008D819E819C0150E040E0C701B6010E940D
:1008B000C81449015A0180E090E0A0E0B0E4281794
:1008C00039074A075B0740F462E0B695A79597950C
:1008D00087956A95D1F7F3CF40E050E0BA010097D1
:1008E000A105B105F9F06C017D01C40ED51EE61E0F
:1008F000F71E76956795579547958C149D04AE0421
:10090000BF0440F08C189D08AE08BF08480F591F5F
:100910006A1F7B1F22E0B695A795979587952A9524
:10092000D1F7DDCF409391035093920360939303EB
:100930007093940326960FB6F894DEBF0FBECDBF1A
:10094000DF91CF911F910F91FF90EF90DF90CF90AB
:10095000BF90AF909F908F907F906F905F904F90DF
:100960003F902F900895109291031092920310924D
:10097000930310929403A895DDCFAF92BF92CF92CC
:10098000DF92EF92FF920F931F93CF93DF936C014F
:100990007B0184E6A82EB12C0FEF13E0D0E0C0E07D
:1009A00084E693E00E94C103C817D907D8F18017E5
:1009B000910708F48C0121E0A21AB10889F780910F
:1009C0005303909154030297C9F080916C03909166
:1009D0006D0390FF29C0946090936D0380936C0326
:1009E00080916C0390916D03C83CE1E0DE07F0F06C
:1009F0009E7F926090936D0380936C03C114D10429
:100A000031F0F60111830083F701D183C083DF91B8
:100A1000CF911F910F91FF90EF90DF90CF90BF90FB
:100A2000AF900895EC01C7CF9B7FD6CF9160E2CF06
:100A3000089581E090E03091210220912002321748
:100A400010F490E080E0919581959109089580914E
:100A5000210290912002891730F48F5F8093210248
:100A600090E080E008958FEF9FEF0895809120023D
:100A700090912102891B990B0895CF93DF93CB01AD
:100A8000EA01642F0E944D03CE01DF91CF910895BA
:100A9000CF93DF931F92CDB7DEB7698361E0CE01BC
:100AA00001960E944D0381E090E00F90DF91CF917D
:100AB000089590E080E0089580915A03882321F002
:100AC00081E080935903089580916C0390916D03A8
:100AD000806890936D0380936C030E94B80190E04E
:100AE00080E00E949B0081E08093580308958091EC
:100AF000B30380FF30C08E7F8093B3036091AF0358
:100B00007091B0038091B1039091B20361157105AA
:100B10008105910501F120E13EE040E050E00E94B6
:100B2000C8148091AB039091AC03A091AD03B09138
:100B3000AE03BA01A901480F591F6A1F7B1F4093DA
:100B4000AB035093AC036093AD037093AE038DE0A1
:100B500090E00C949B140895CF93DF93E6E5F2E0C8
:100B600080E0EF019191992311F08927FACF1F922C
:100B70008F938AE391E09F938F93DF93CF930E94AB
:100B80001D158DE08B831C820F900F900F900F909E
:100B90000F900F90DF91CF910895CF9380916A03CA
:100BA000C1E080FDC2E081E090E0C13011F490E04E
:100BB00080E00E947914982F8FEF890F8E3F28F0E4
:100BC0009EE1C13069F48CE009C086E0963030F0D7
:100BD000C13031F4892F993108F088E1CF9108951F
:100BE00080917B039817D0F7892FF8CF6115710595
:100BF00061F0FB0101900020E9F73197AF01461B3E
:100C0000570B8EE892E00C942E0290E080E008955D
:100C1000EF92FF921F93CF93DF9380915502C2E032
:100C200081110CC0C0916E03CC2399F080916C03AC
:100C300090916D03C13049F490FF0FC08C2FDF916C
:100C4000CF911F91FF90EF900895C23021F490FD55
:100C500004C0C1E0F3CFC330D1F310917203D0913F
:100C60007C037C012AE1E22221E2F222209154025B
:100C7000C2130FC02091530212130BC020915202D5
:100C8000D21307C02091500230915102E216F306B0
:100C900001F39F938F931F92DF931F921F931F92D5
:100CA000CF931F9284E28F9380E491E09F938F9380
:100CB00086E592E09F938F930E941D150E94AC05DC
:100CC00066E572E08BE293E00E94F605C093540261
:100CD00010935302D0935202F0925102E0925002CC
:100CE0008DB79EB70E960FB6F8949EBF0FBE8DBF00
:100CF000C0E0A4CF81115DC08AE591E09F938F93FE
:100D00001F9284E28F938DE591E09F938F9386E508
:100D100092E09F938F930E941D158DB79EB7089602
:100D20000FB6F8949EBF0FBE8DBF80912F0388230E
:100D300071F062EB71E086E592E00E94121560911D
:100D40002D0370912E0386E592E00E9412152091EA
:100D500046032223E9F086E592E0FC0101900020A1
:100D6000E9F7CF011F922F931F922AE32F9322E6D8
:100D700031E03F932F9301979F938F930E941D150E
:100D80008DB79EB708960FB6F8949EBF0FBE8DBF65
:100D90000E94AC0566E572E08BE293E00E94F605E6
:100DA00080914503882341F06AE08BE293E00C9444
:100DB000BD0387E591E0A2CF0895EF92FF920F93D4
:100DC0001F93CF93DF93C82F062F142F80916A03B0
:100DD00090916B037C0121E0E222FF2480FF35C06B
:100DE00080917B0311110E94CD05C63080F18C17D4
:100DF000A0F1C0937C03D0E0C0E011110EC060915F
:100E00007C0321E0EF2809F022E081E090E021302E
:100E100011F490E080E00E948D1480915303909132
:100E20005403019729F480917C0390E00E94F9001B
:100E3000002319F081E00E94D901CE01DF91CF910A
:100E40001F910F91FF90EF90089588E1CBCF86E03E
:100E500080937C03C1E0D0E0D0CF80937C03C2E0DC
:100E6000D0E0CBCFCF93C62F20916A0330916B0394
:100E7000823029F5216030936B0320936A0380E868
:100E800099EAA3E0B0E08093A3039093A403A09316
:100E9000A503B093A60360916A0370916B0382E08F
:100EA00090E00E94A3140E94CD0541E060E00E9402
:100EB000DD06CC2371F081E0CF910C94D9012E7F17
:100EC00030936B0320936A0380EC94EDA1E0B0E0D3
:100ED000DACFCF9108952F923F924F925F926F9207
:100EE0007F928F929F92AF92BF92CF92DF92EF92BA
:100EF000FF920F931F93CF93DF93CDB7DEB72C975D
:100F00000FB6F894DEBF0FBECDBF8EE892E00E9410
:100F100090029C878B8701E010E0892B09F42BC499
:100F2000712C612C01E010E056E7252E51E0352EA2
:100F300063E7E62E61E0F62E70E7472E71E0572E4C
:100F40002B853C85621673060CF015C48EE892E082
:100F50000E946A02C82E80914503882329F06C2DD7
:100F60008BE293E00E94BD03E0912D03F0912E03EC
:100F700034E2C31208C0C08281E080932F039FEF48
:100F8000691A790ADDCF20812432C9F780912F03B5
:100F900080320CF0ECC391E0980FE80FF11D87FD53
:100FA000FA958DE090932F03C812DFC310828091D1
:100FB0002D0390912E03AC014F5F5F4F509331038F
:100FC0004093300331E030934403DC0111963C91AF
:100FD00044E2C42EC30ED32ED2260296FC01DC01BD
:100FE0002D91CD012223C1F1203231F530914403FE
:100FF0003A307CF010924403E0912D03F0912E03DF
:10100000108210922F031092460380E00E947A060D
:10101000B6CFB0E2CB0ED226FC0131971082E09120
:10102000440321E02E0F20934403EE0FFF0BE55DF8
:10103000FC4F96838583D2CF2A3209F446C02E35E1
:1010400009F046C022E0922E10820E948D03E1E05A
:101050009E1241C0C812CECF81E0809355021092FB
:1010600046031091440312309CF0E12FEE0FFF0B6A
:10107000E75DFC4F85819681DC012C912A3341F498
:1010800001960E948D0380934603115010934403F0
:1010900010922F03E0913003F09131038081873467
:1010A00009F4D7C1833509F4DFC0863459F481814E
:1010B000853409F479C094F4803309F445C084344C
:1010C00009F45FC00FEF1FEF7CC199249394BCCF4C
:1010D000C20ED22683CFD8128DCFBECF823509F46F
:1010E00081C0833509F4A9C0863461F78091440337
:1010F000833041F7E0913403F09135032081205390
:10110000223000F7E0913203F0913303808185347F
:1011100009F45AC0863509F45BC0843499F680918D
:101120006A0390916B03222309F44CC08D7F909346
:101130006B0380936A0360916A0370916B0382E092
:1011400090E00E94A31414C080914403823009F0FF
:10115000B9CFE0913203F09133038091780290810E
:10116000903349F08F7B809378028081803329F41B
:1011700010E000E026C18064F6CF81E00E94D90132
:10118000F7CF80916E038F3F99F382E090E00E9449
:101190009B008FEF80936E030E94B80181E00E9454
:1011A000D9010E940806E4CF80916E038E3F00F3C0
:1011B0008FEF80936F0310926E0390E080E00E94A7
:1011C0009B00D6CF8260B3CF81E080934503D0CF20
:1011D00080916A0390916B03222311F08B7FA7CF3C
:1011E0008460A5CF90E080E00E949B0080916C031A
:1011F00086FF12C010E000E0A8950F5F1F4F63E06C
:1012000070E080E090E0083EB3E01B0719F00E9418
:101210004F01F2CF0E944F0188E19EE00FB6F89493
:10122000A895809360000FBE909360006CED75E010
:1012300080E090E00E944F019BCF80916E038E3F33
:1012400009F496CF90E080E00E949B008EEF80939F
:101250006E030E94AC0160938103709382038093BC
:101260008303909384039ACF81818B3409F4C8C09F
:101270000CF040C0813409F46BC0833409F022CFF4
:10128000009144038EEF800F823008F01BCF8091D5
:101290003203909133030E946D03162F40E0033018
:1012A00009F0A6C0E0913403F0913503808141E05C
:1012B0008D3409F09DC08AEF810F833208F068C039
:1012C0008FEF91E00E94791481508E3F08F460C046
:1012D000612F8FEF91E00E948D1410937B0380911A
:1012E0007C03181728F441E061E0812F0E94DD069D
:1012F00000E04FC08C3409F498C08D3409F0E2CE80
:1013000080914403833009F0DDCE809134039091C5
:1013100035030E946D034B015C0180913203909173
:1013200033030E946D0370939E0360939D0388E1D5
:1013300090E00E94A31480929F039092A003A09239
:10134000A103B092A203B501A40184E190E06AC0B8
:1013500080914403833009F0B5CE8091320390919F
:1013600033030E946D0370939C0360939B0389E099
:1013700090E00E94A31480913403909135030E9461
:101380006D0370939A03609399038BE090E0D9CE3C
:1013900001E010E080917B031F928F93FF92EF9208
:1013A00080912E038F9380912D038F930E941D15A2
:1013B0000F900F900F900F900F900F9081E08093FF
:1013C0002F0380912F038F3F39F081E00115110524
:1013D00009F080E00E947A06E0912D03F0912E033F
:1013E000108210922F03109255020E940806C7CD5A
:1013F00061E0812F0E94DD068C0180917C03CCCFBF
:1014000080913203909133030E946D03AB01BC01C4
:101410004093AB035093AC036093AD037093AE0362
:101420008DE090E00E949B14A3CE80914403823013
:1014300009F048CEE0913203F091330380819FECB4
:10144000980F923008F03ECE61E080530E94320740
:101450008FCE8181873409F4D8C00CF043C0833427
:1014600009F4A1C02CF5803309F47CC0813409F063
:1014700029CE80919A038F93809199038F938091C5
:101480009C038F9380919B038F935F924F928091E7
:101490002E038F9380912D038F930E941D1581E061
:1014A00080932F030FB6F894DEBF0FBECDBF60CE82
:1014B000853409F49BC0863409F004CE1F921F9234
:1014C0001F921F92809163038F5F1F928F933F92B1
:1014D0002F9280912E038F9380912D038F930E94E2
:1014E0001D15DDCF833509F4F2C0ECF4893409F41D
:1014F000A9C08D3409F0E6CD8091A2038F9380912D
:10150000A1038F938091A0038F9380919F038F936A
:1015100080919E038F9380919D038F9387E891E044
:101520009F938F93D6CF853509F404C1863509F092
:10153000C9CD62E770E080912D0390912E030E9447
:10154000721462EB71E080912D0390912E030E9442
:1015500012156BE770E080912D0390912E030E948D
:101560006714B1C080915303909154030297C9F05E
:1015700080916D0381701F928F93FF92EF92809103
:101580002E038F9380912D038F930E941D1581E070
:1015900080932F030F900F900F900F900F900F904C
:1015A000E7CD82E0E8CF80916A0300917B0310E0F1
:1015B00080FD02C008E110E00E94CD051F928F93CC
:1015C00080917C031F928F931F930F931F9286E04D
:1015D0008F932AE631E03F932F9380912E038F93D0
:1015E00080912D038F930E941D1559CF80916B031D
:1015F0008F9380916A038F9380917C031F928F93C6
:10160000EFE4F1E0FF93EF9342CF8091A6038F9335
:101610008091A5038F938091A4038F938091A3035E
:101620008F93809198038F93809197038F938091EC
:1016300096038F93809195038F93EFE7F1E0FF93EB
:10164000EF93CBCFAE014F5F5F4FCA01EEE0F0E00A
:1016500031E2309357002491DC012D93CD01319676
:10166000E831F105B1F7C0902D03D0902E03F601BB
:1016700080E28193C6010796DA012D91AD01219395
:10168000E817F907C9F78F014E01B7E08B0E911CDF
:10169000EFE0CE0ED11CD4018D914D011F928F939E
:1016A000EBE3F1E0FF93EF931F930F930E941D155F
:1016B0000E5F1F4F0F900F900F900F900F900F9095
:1016C0000C151D0541F781E080932F0351CD8091CA
:1016D0006D038F9380916C038F93809172031F929F
:1016E0008F938091850390918603A0918703B09199
:1016F000880340918D0350918E0360918F03709108
:101700009003840F951FA61FB71FBF93AF939F939E
:101710008F9380916E031F928F932EE831E03F9359
:101720002F9380912E038F9380912D038F930E948E
:101730001D15B5CE8091AE038F938091AD038F932D
:101740008091AC038F938091AB038F938091B20310
:101750008F938091B1038F938091B0038F93809189
:10176000AF038F93E1EAF1E06ACFC08208CC108228
:1017700010922F0304CCC8012C960FB6F894DEBF4C
:101780000FBECDBFDF91CF911F910F91FF90EF90D2
:10179000DF90CF90BF90AF909F908F907F906F9091
:1017A0005F904F903F902F90089580916C0390919F
:1017B0006D03826090936D0380936C0382E00E94BE
:1017C000D9010E9408060E946B07809153039091F3
:1017D00054030297C1F370E060E090E080E00E9463
:1017E000BD0480916C0390916D0390FDECCF10923D
:1017F0006E038D7F90936D0380936C0308951F9209
:101800000F920FB60F9211242F933F938F939F93B4
:10181000AF93BF938091480290914902A0914A02F0
:10182000B0914B023091470223E0230F2D3758F53A
:101830000196A11DB11D2093470280934802909309
:101840004902A0934A02B0934B0280914C029091BE
:101850004D02A0914E02B0914F020196A11DB11D03
:1018600080934C0290934D02A0934E02B0934F028E
:10187000BF91AF919F918F913F912F910F900FBE8C
:101880000F901F90189526E8230F0296A11DB11DF9
:10189000D2CF1F920F920FB60F9211242F933F9326
:1018A0004F935F936F937F938F939F93AF93BF9368
:1018B000EF93FF93E0910201F09103010995FF91ED
:1018C000EF91BF91AF919F918F917F916F915F91B8
:1018D0004F913F912F910F900FBE0F901F90189531
:1018E0001F920F920FB60F9211242F933F934F9395
:1018F0005F936F937F938F939F93AF93BF93EF9378
:10190000FF93E0910001F09101010995FF91EF91A2
:10191000BF91AF919F918F917F916F915F914F9107
:101920003F912F910F900FBE0F901F9018951F920F
:101930000F920FB60F9211242F933F934F935F9303
:101940006F937F938F939F93AF93BF93EF93FF9387
:101950008EE892E00E94B402FF91EF91BF91AF91A7
:101960009F918F917F916F915F914F913F912F91B7
:101970000F900FBE0F901F9018951F920F920FB6E9
:101980000F9211242F938F939F93EF93FF93E091E6
:101990009E02F0919F028081E091A402F091A50245
:1019A00082FD1BC090818091A7028F5F8F73209171
:1019B000A802821741F0E091A702F0E0E257FD4F44
:1019C000958F8093A702FF91EF919F918F912F9117
:1019D0000F900FBE0F901F9018958081F4CF1F922B
:1019E0000F920FB60F9211242F933F934F935F9353
:1019F0006F937F938F939F93AF93BF93EF93FF93D7
:101A00008091B900887F803609F44AC0F0F58832A9
:101A100009F4A5C018F5803109F499C0B8F48823F9
:101A200009F4F2C0883009F492C0FF91EF91BF91A0
:101A3000AF919F918F917F916F915F914F913F9166
:101A40002F910F900FBE0F901F901895883109F4B9
:101A500086C0803251F78093F70114C0803409F4B6
:101A60009BC040F48033B9F38833F9F68093F701D3
:101A700085ECAEC0803509F483C0883509F494C084
:101A8000883499F60E944303D0CF883909F48AC07C
:101A900038F5883729F050F4883611F0803729F668
:101AA00083E080931D021092F60155C0883809F436
:101AB00079C0803919F0803809F0B7CF8091F601EC
:101AC000803208F06FC0E091F60181E08E0F8093C4
:101AD000F6018091BB00F0E0EA52FE4F80833BC0EC
:101AE000803B39F0D0F4803A09F477C0883A09F0A5
:101AF0009CCF84E080931D021092D5011092D401F6
:101B0000F0E0E0E009958091D40181110FC081E0FF
:101B10008093D4011092B40109C0803C09F4A8CF8D
:101B2000883C09F4A5CF883B09F07FCFE091D5012F
:101B300081E08E0F8093D501F0E0EC54FE4F808160
:101B40008093BB009091D5018091D40129C08091F0
:101B50001A028093BB0085EC8093BC0066CF909105
:101B6000190280911802981758F5E091190281E046
:101B70008E0F80931902F0E0E850FE4F8081E9CF8C
:101B8000E091190281E08E0F809319028091BB00D1
:101B9000F0E0E850FE4F8083909119028091180286
:101BA0009817C8F285E8D8CFE091190281E08E0F2E
:101BB000809319028091BB00F0E0E850FE4F8083D3
:101BC00080911C0281115ECF81E080931B0284EA28
:101BD0008093BC0010921D0228CF8091F6018032C4
:101BE00030F4E091F601F0E0EA52FE4F10820E94DC
:101BF00043036091F60170E086ED91E0F0E0E0E0F3
:101C000009951092F60134CF1092F7013BCF109254
:101C100091021092900288EE93E0A0E0B0E08093F1
:101C2000920290939302A0939402B093950228E0BD
:101C300031E030938F0220938E0225EC30E0309318
:101C40009B0220939A0224EC30E030939D02209373
:101C50009C0220EC30E030939F0220939E0221EC06
:101C600030E03093A1022093A00222EC30E03093C8
:101C7000A3022093A20226EC30E03093A502209329
:101C8000A4021092A7021092A8021092A902109228
:101C9000AA02109246032AE131E030932C032093EC
:101CA0002B0310924A031092490380934B039093A5
:101CB0004C03A0934D03B0934E038CE291E09093BC
:101CC0004803809347031092640382E08093650386
:101CD00081E0809366031092B3031092AF031092D9
:101CE000B0031092B1031092B2038DE090E00E9415
:101CF00081146F3F7F4F8F4F9F4F39F440E050E08A
:101D0000BA018DE090E00E949B148DE090E00E946B
:101D100081146093AB037093AC038093AD039093F5
:101D2000AE030895CF93DF9300D000D000D0CDB79D
:101D3000DEB7789484B5826084BD84B5816084BD4B
:101D400085B5826085BD85B5816085BD80916E0059
:101D5000816080936E00109281008091810082608A
:101D600080938100809181008160809381008091C7
:101D700080008160809380008091B10084608093B6
:101D8000B1008091B00081608093B00080917A00B2
:101D9000846080937A0080917A00826080937A00D8
:101DA00080917A00816080937A0080917A008068C7
:101DB00080937A001092C1000FB6F894A895809194
:101DC0006000886180936000109260000FBE60E93F
:101DD00071E080E090E00E944F01E0919E02F0915E
:101DE0009F0282E08083E0919A02F0919B02108230
:101DF000E0919C02F0919D0280E180831092A60206
:101E0000E091A202F091A30286E08083E091A0021B
:101E1000F091A102808180618083E091A002F09125
:101E2000A102808188608083E091A002F091A102EC
:101E3000808180688083E091A002F091A10280817E
:101E40008F7D8083109221021092200210921F0237
:101E500010921E0210921D0291E090931C021092AB
:101E60001B0288B1806388B98091B9008E7F80930E
:101E7000B9008091B9008D7F8093B9008CE0809388
:101E8000B80085E48093BC00A895909378021092E6
:101E90004503E0912D03F0912E03108210922F0341
:101EA00082E292E090932E0380932D0310926E03B2
:101EB00010926F0382E090E00E9487148C018BE205
:101EC00090E0909368038093670380E280936903B6
:101ED000659A89E290E0909356038093550388E0D9
:101EE000809357035398E6EAF0E02491E2E9F0E0AA
:101EF0008491882399F090E0880F991FFC01E8599C
:101F0000FF4FA591B491FC01EF57FF4F859194913C
:101F10008FB7F894EC91E22BEC938FBF81E00E9495
:101F2000B0000E9482018CE595E0909303018093BC
:101F30000201809169008C6080936900E99A84E0D5
:101F40008D832D8183E290E090935C0380935B030B
:101F500081E090E001C0880F2A95EAF780935D0345
:101F600094B1892B84B90E9495010E94B801109206
:101F7000800080E49FE1909387008093860081E158
:101F800080938100219A80918000806880938000F6
:101F900090E080E00E949B000F3F100739F4109200
:101FA0006B0310926A0312E0F12E08C010936B03CA
:101FB00000936A03FF24F39400FDF5CF00916A03B8
:101FC00010916B03C801806290936B0380936A0346
:101FD0008BE090E00E9487146C0190939A038093A9
:101FE000990389E090E00E94871490939C0380936A
:101FF0009B03CD20C09421F410929A031092990370
:10200000019631F48AE590E090939C0380939B03C2
:1020100010929103109292031092930310929403E2
:1020200010929503109296031092970310929803C2
:1020300084E190E00E9481144B015C0180929F0337
:102040009092A003A092A103B092A20388E190E035
:102050000E94871490939E0380939D038B208A2077
:102060008920809441F410929F031092A003109253
:10207000A1031092A203019631F488E790E09093B7
:102080009E0380939D030062116010936B03009385
:102090006A0380E092E090936D0380936C038FEF6E
:1020A00091E00E94791480937B0381508E3F18F059
:1020B00088E280937B031092620381E190E00E94AA
:1020C00079148093630360E08F2D0E943207809122
:1020D0006E031F928F931F9284E28F9389EA91E09F
:1020E0009F938F9306E512E01F930F930E941D1597
:1020F000F80101900020E9F7CF0162E770E0019755
:102100000E9472140E94AC05B8018BE293E00E9419
:10211000F60588E19FE00FB6F894A89580936000DB
:102120000FBE909360000FB6F894DEBF0FBECDBF18
:10213000B8EECB2EB3E0DB2EE12CF12C22242A9436
:10214000322CA8953A8229820E94AC014B015C0195
:1021500080916E038F3F09F05BC080936F03009105
:102160006C0310916D03002711708091B30381FD02
:10217000A5C301151105C9F00E9477051092AF03A0
:102180001092B0031092B1031092B2030E94AC01FE
:102190006093A7037093A8038093A9039093AA0365
:1021A0008091B30381608093B3038091B30380FF78
:1021B00015C090916C0396FF88C382FD19C30E94DD
:1021C000AC016093A7037093A8038093A903909335
:1021D000AA038091B30384608093B3038091B30317
:1021E000012B09F469C382608093B30380E00E94ED
:1021F000D9010E946B0740E050E0452B09F4A1CFC4
:102200000E94A002882309F49CCF0E94000096CF70
:10221000BE016F5F7F4FCE0103960E94BD042091E7
:102220006C0330916D03C901882795700097B9F050
:1022300081159540A1F030FF10C010928D031092CF
:102240008E0310928F0310929003109285031092C8
:102250008603109287031092880381E001C080E01A
:1022600000916E030E3F09F049C026FD09C0882386
:1022700009F441C081E00E94D9010E9408063BC0D8
:102280000E94D503A0919B03B0919C0320919103E0
:102290003091920340919303509194030E9404154E
:1022A0000091990310919A03012E000C220B330B1D
:1022B000601B710B820B930B29813A8126343140CC
:1022C000C0F4693E7340810591059CF080918103C3
:1022D00090918203A0918303B0918403881A990A94
:1022E000AA0ABB0AF8EB8F16FBE09F06A104B10413
:1022F00010F00E94B80180916E032FCF9091580387
:10230000992309F4D0C086E080936E03063009F467
:1023100097C0609163036F5F6E3F30F46093630317
:1023200081E190E00E948D141092620380925E031E
:1023300090925F03A0926003B092610310E096E078
:10234000409172034E83112309F4F0C08CEF800F8B
:102350008B3038F490E080E00E949B0010926E0376
:1023600000E020916A0321FD0CC0809153039091FD
:102370005403019731F48B819C818238910508F0D8
:10238000A5C089819A81883C51E0950708F094C0E6
:102390008634E1E09E0708F091C0843C910508F482
:1023A00084C08091530390915403019709F089C030
:1023B00083E013E001138CC0FE81F81769F090915F
:1023C0007103891709F4B5C080927703909278035E
:1023D000A0927903B0927A038093710310937003F3
:1023E00090916E03901779F02FEF290F233010F49E
:1023F00080937203913009F0B2C00E94B80190E05E
:1024000080E00E949B0000936F030E94AC014B018F
:102410005C0110E000E00E94AC01681979098A09AA
:102420009B09633271058105910508F022C186E69A
:1024300093E00E94C1030817190768F78C01EBCFDE
:1024400030FD05C010926E030E94950188CE8091E8
:102450005E0390915F03A0916003B0916103A501B9
:102460009401281B390B4A0B5B0BDA01C901803E32
:102470009349A440B105A0F0809162038F5F8093DF
:102480006203873018F00E94D50B69CE0E94950137
:1024900010925E0310925F0310926003109261032A
:1024A00096E010E04DCF11E04BCF892B61F084E036
:1024B00022FD7FCF14E00CC0812F7CCF82E012E0A0
:1024C00079CF83E0FCCF80E010E074CF85E015E0A9
:1024D00090917003191749F08092730390927403DE
:1024E000A0927503B092760367CF40917303509129
:1024F0007403609175037091760324013501441AC9
:10250000550A660A770A49E150E060E070E0113050
:1025100021F04AEF50E060E070E044165506660690
:10252000770608F449CF10936E0346CF80E0192F49
:1025300043CF409177035091780360917903709174
:102540007A03841A950AA60AB70A2AEF821691041A
:10255000A104B10408F440CF809372033DCF9230C0
:1025600041F40E94B80180917C0390E00E94F90040
:102570004ACF933009F058C080917C0390E00E94CC
:10258000F900E0916703F0916803828190916903FB
:10259000892B828380916C0390916D039C01206450
:1025A00030936D0320936C0391FF19C010928D033B
:1025B00010928E0310928F03109290039D7F80647F
:1025C00090936D0380936C030E94AC0160937D0334
:1025D00070937E0380937F039093800314CF809148
:1025E0008D0390918E03A0918F03B0919003409141
:1025F0008503509186036091870370918803840F4F
:10260000951FA61FB71F80938D0390938E03A093F1
:102610008F03B0939003109285031092860310925B
:10262000870310928803D0CF943049F40E94B801F8
:1026300090E080E00E949B000E94D50BE4CE963093
:1026400009F4DBCE953041F40E94B80180917C03FF
:1026500090E00E94F900ECCF973009F4CECE98308C
:1026600019F40E94B801CFCE90E080E00E949B0058
:10267000F8CFA0919D03B0919E0398010E94EA14A7
:1026800000919F031091A0032091A1033091A20318
:10269000060F171F281F391F0093A3031093A403CD
:1026A0002093A5033093A60380916E03833009F035
:1026B00064C080919B0390919C03181619069CF5A9
:1026C0000E94D5034091910350919203609193032E
:1026D0007091940380914602811108C010924202C9
:1026E00010924302109244021092450280904202DE
:1026F00090904302A0904402B0904502840E951E33
:10270000A61EB71E8092420290924302A0924402FB
:10271000B09245028F5F803299F18093460280919A
:102720006E03833051F58091850390918603A091CB
:102730008703B09188038093890390938A03A093C1
:102740008B03B0938C030E94AC0100917D03109128
:102750007E0320917F0330918003601B710B820BFD
:10276000930BA70196010E94C81420938503309310
:10277000860340938703509388030E940806EFCC9A
:1027800010924602A0919B03B0919C03A501940175
:10279000F5E05695479537952795FA95D1F70E941C
:1027A00004150091990310919A03012E000C220B3D
:1027B000330BDC01CB01801B910BA20BB30BB7FDDC
:1027C0000EC08093950390939603A0939703B093C4
:1027D000980380917802806880937802A0CF10924D
:1027E0009503109296031092970310929803F1CFDD
:1027F0000E94AC014B015C018091A7039091A8035A
:10280000A091A903B091AA0324013501481A590ADD
:102810006A0A7B0A3BEF431651046104710408F411
:10282000D8CC2091A3033091A4034091A5035091EB
:10283000A60384E056954795379527958A95D1F755
:1028400060919503709196038091970390919803FE
:10285000E2E09695879577956795EA95D1F70E947E
:10286000B81429E03DE340E050E00E94C814C301E1
:10287000B2010E94B814A70196010E94C814809169
:10288000AF039091B003A091B103B091B203820F56
:10289000931FA41FB51F8093AF039093B003A09321
:1028A000B103B093B2038092A7039092A803A092C1
:1028B000A903B092AA038DCC8D7F96CC011511058A
:1028C00009F073CC0E94770570CC8B7F85CCFB011F
:1028D000DC010D900020E9F7119705900D92002082
:1028E000E1F70895FB01DC0105900D920020E1F76E
:1028F0000895F999FECF92BD81BDF89A992780B5C8
:102900000895A6E1B0E044E050E00C94AA14A8E1D8
:10291000B0E042E050E00C94AA14262FF999FECFC3
:102920001FBA92BD81BD20BD0FB6F894FA9AF99AEC
:102930000FBE01960895242F0E948E14252F0E9409
:102940008E140C94A3140E948D14272F0C948E14B3
:10295000DC01CB01FC01F999FECF06C0F2BDE1BD5F
:10296000F89A319600B40D9241505040B8F708954E
:10297000DB018F939F930E94F914BF91AF91A29FA7
:10298000800D911DA39F900DB29F900D112408956D
:10299000A1E21A2EAA1BBB1BFD010DC0AA1FBB1F63
:1029A000EE1FFF1FA217B307E407F50720F0A21BD5
:1029B000B30BE40BF50B661F771F881F991F1A9442
:1029C00069F760957095809590959B01AC01BD016C
:1029D000CF010895A29FB001B39FC001A39F700DC6
:1029E000811D1124911DB29F700D811D1124911D17
:1029F00008950E94EA14A59F900DB49F900DA49F86
:102A0000800D911D11240895B7FF0C94F9140E94B4
:102A1000F914821B930B0895EE0FFF1F0590F4919C
:102A2000E02D0994FB01DC010D900020E9F71197DE
:102A300001900D920020E1F70895AEE0B0E0E3E2EE
:102A4000F5E10C94CC170D891E8986E08C831A83DE
:102A500009838FEF9FE79E838D83AE01475E5F4FB3
:102A60006F89788DCE0101960E9440152F8138859F
:102A7000020F131FF80110822E96E4E00C94E81761
:102A8000ABE0B0E0E6E4F5E10C94BE177C013B015D
:102A90008A01FC0117821682838181FFC8C1CE01A1
:102AA00001965C01F7019381F30193FD859193FFFA
:102AB00081913F01882309F453C1853239F493FD94
:102AC000859193FF81913F01853229F4B70190E010
:102AD0000E943017E7CF912C212C312CFFE1F31508
:102AE00038F08B3211F190F4803209F1833229F100
:102AF00037FC3CC020ED280F2A3050F536FE20C0B0
:102B00008AE0989E200D1124922E06C08D3291F0FD
:102B1000803371F7689430F8F30193FD859193FF4A
:102B200081913F018111DACF21C0689431F8689416
:102B300032F8F2CF689433F8EFCF689434F8ECCFE2
:102B4000EAE02E9E200D1124222E689435F8E4CF61
:102B50008E3229F436FC04C1689436F8DDCF8C3609
:102B600019F4689437F8D8CF8836B1F2982F9F7D42
:102B700095549330E0F08336A1F18337C1F183356A
:102B800009F063C02801F2E04F0E511CF801C0802B
:102B9000D180692D70E036FC02C06FEF7FEFC60177
:102BA0000E941A174C01689437F882010AC00C5F22
:102BB0001F4FFFE3F98388248394912C6501E894E7
:102BC00037F833FE2DC0522C8114910471F5552035
:102BD00009F468CFB70180E290E00E9430175A9460
:102BE000F6CFF801808189830E5F1F4FE4CF280163
:102BF000F2E04F0E511CF801C080D180692D70E0C9
:102C000036FC02C06FEF7FEFC6010E9425174C0112
:102C10008201D5CFB70180E290E00E9430172A945C
:102C20002814190409F0B0F7CECFF60137FC8591CE
:102C300037FE81916F01B70190E00E94301751106B
:102C40005A94F1E08F1A9108BFCF843619F0893673
:102C500009F077C0F80137FE6BC060817181828115
:102C600093810C5F1F4FF32DFF763F2E97FF09C016
:102C700090958095709561957F4F8F4F9F4F689489
:102C800037F82AE030E0A5010E946017C82ECA1864
:102C90008C2C432C36FE0CC0E89440F8C91440F448
:102CA00034FE05C032FC03C0F32DFE7E4F2E892C6E
:102CB00044FE95C0FE01EC0DF11D8081803309F0CA
:102CC00087C0242D297E422E842D8870582E43FCE7
:102CD00095C040FE8FC09C2C821418F42C0C922CB2
:102CE000981844FE91C0B70180E390E00E9430172D
:102CF00042FE09C088E790E041FE02C088E590E00E
:102D0000B7010E943017C91408F48AC0CA94D12CA4
:102D10009FEFC91AD90ACA0CDB1CF60182916F0118
:102D2000B70190E00E943017AC14BD04B1F74FCF4B
:102D300060817181072E000C880B990B0E5F1F4F6D
:102D400092CFD32CE894D4F82AE030E0853739F1DB
:102D5000232D297FD22E8F3601F148F48835A9F032
:102D6000F701868197812B96E2E10C94DA17803780
:102D700049F08837A9F7D4FE02C06894D2F820E160
:102D800030E00DC06894D4F8F6CF34FE03C0822F33
:102D90008660D82E20E132E002C028E030E0F80161
:102DA000D7FE0FC060817181828193810C5F1F4FBC
:102DB000A5010E946017C82ECA183D2CE89437F868
:102DC00067CF6081718190E080E00E5F1F4FF0CF90
:102DD00042FC02C0839478CF8394839475CF842D72
:102DE000867809F471CFF6CFB70180E290E00E94B7
:102DF000301783948214C0F3512C73CF522C58187F
:102E0000821408F46ECFF8CF842D867809F47BCF36
:102E10008BE241FE80E247FC8DE2B70190E071CF8A
:102E2000B70180E390E00E9430179A946CCF8FEF47
:102E30009FEF99CFFC010590615070400110D8F7C9
:102E4000809590958E0F9F1F0895FC0161507040F2
:102E500001900110D8F7809590958E0F9F1F0895CF
:102E60000F931F93CF93DF93182F092FEB018B81C3
:102E700081FD09C01FEF0FEF812F902FDF91CF91C0
:102E80001F910F91089582FF14C02E813F818C8184
:102E90009D81281739073CF4E881F981CF0101961B
:102EA0009983888310838E819F8101969F838E836F
:102EB000E3CFE885F985812F0995892BA1F3DACF36
:102EC000FA01AA27283051F1203181F1E8946F935B
:102ED0006E7F6E5F7F4F8F4F9F4FAF4FB1E03ED001
:102EE000B4E03CD0670F781F891F9A1FA11D680F9F
:102EF000791F8A1F911DA11D6A0F711D811D911DD2
:102F0000A11D20D009F468943F912AE0269F112446
:102F10003019305D3193DEF6CF010895462F4770AA
:102F2000405D4193B3E00FD0C9F7F6CF462F4F7005
:102F3000405D4A3318F0495D31FD4052419302D063
:102F4000A9F7EACFB4E0A695979587957795679509
:102F5000BA95C9F700976105710508959B01AC0109
:102F60000A2E06945795479537952795BA95C9F730
:102F7000620F731F841F951FA01D08952F923F920B
:102F80004F925F926F927F928F929F92AF92BF9279
:102F9000CF92DF92EF92FF920F931F93CF93DF9325
:102FA000CDB7DEB7CA1BDB0B0FB6F894DEBF0FBE82
:102FB000CDBF09942A88398848885F846E847D84CF
:102FC0008C849B84AA84B984C884DF80EE80FD80D1
:102FD0000C811B81AA81B981CE0FD11D0FB6F89447
:0E2FE000DEBF0FBECDBFED010895F894FFCF08
:102FEE002D022D0200000000D6022E025B022303EA
:102FFE0090026A028202000000009C027E02F8002B
:10300E00F800BD03F60566030000000048053D0507
:10301E00590518053605270519055E253032580065
:10302E0025634154202530327820253032782025F2
:10303E00642025303478004F4B004E4B002563251D
:10304E007300202563253032580025642025642026
:10305E0025642025640025782025782025780025F4
:10306E006C6420256C6400256420256C640025307A
:10307E00327820256C642025303278202530347843
:10308E0000256C7520256C75002563414220253086
:04309E003278200064
:00000001FF
